:0F03D100E7E7E7E7E70000000042000000002731
:0503FF00C108016200CD
:0A03ED008FE7E5E630E1FBAFE72201
:0203AD00AE059B
:1003AF00C2E91203EDAD07AF061203EDD2E9AF05B7
:0103BF00221B
:0C03E000C2E91203EDE4FF1203EDD2E9C4
:0103EC0022EE
:0602F3008B098A0A890B49
:1002F900C2E91203EDAE07E4FDEDC3950C5017E416
:10030900FF1203EDAB09AA0AA90B8D82758300EFD1
:0A03190012024B0D80E3D2E9AF069B
:0103230022B7
:0602C1008B178A18891951
:1002C700C2E91203EDAE07E4FDEDC3951A5018AB72
:1002D700170519E519AA187002051814F91202056D
:0B02E700FF1203ED0D80E2D2E9AF062C
:0102F20022E9
:1003C000E4F520C208C2E87D0F7F201203ADD2E819
:0103D000220A
:100003008E0D8F0EC2E87D0E7F201203AD7BFF7A2B
:100013000379D1751A057F2A1202C17B007A007910
:1000230042850E1A7FA01202C1D2E8A204720550C3
:04003300FA0203C00A
:03004B0002017F30
:10017F00C0E0C083C082C0D075D000C000C001C035
:10018F0002C003C005C006C0077F071203E08F201F
:10019F003006317B007A007922750C207F611202C4
:1001AF00F3E4FD7FE21203ADD2087F601203E08F0C
:1001BF0062E562D39420400C756200E4FD7FE21289
:1001CF0003ADC208300407E4FD7FE11203AD300533
:1001DF0007E4FD7FE11203AD7D707F271203ADD0E1
:1001EF0007D006D005D003D002D001D000D0D0D098
:0601FF0082D083D0E03243
:06004E008B0D8A0E890FE4
:100054007C07C2E8D2EAD2B9C2E8D2EAE515146054
:100064000F146014146016240370155304F98010DF
:100074005304FB43040280085304FD80004304043A
:10008400E514600E1460101470135304F743042035
:10009400800B5304D780065304DF430408AB10AA33
:1000A40011A912751A057F301202C1AB0DAA0EA94F
:1000B4000F751A057F2A1202C17D017F221203AD3A
:1000C400E4FD7F211203ADE4FD7F241203ADAD13E3
:1000D4007F251203ADAD047F261203AD7D017F3C65
:0F00E4001203AD7D077F3D1203ADD2AF0203C003
:060324008B1B8A1C891DE1
:10032A00120398E4FEEEC39F5018AB1BAA1CA91D2A
:10033A008E8275830012021EFD74422EF8A6050EE7
:0A034A0080E37E001200030203C0EE
:100354007593FF5393FB5393F74393104393207583
:1003640010FF7511037512D675135C75140175159C
:0A037400037BFF7A0379D602004EE6
:10026D002084117542477F017E001200037FFA7EC4
:10027D00001200372085117542527F017E00120059
:10028D00037FFA7E00120037300828C208E52224C9
:10029D00AE6007240B7006B28222B28322B282B204
:1002AD00837FF47E01120037B282B2837FF47E0128
:0402BD0012003722D2
:0803F70012035412026D80FB99
:0B037E007FFA7E001203897FFA7E00E8
:0F0389000000000000EF1F70011E144E70F222E2
:10003700AD07AC0612037E12037EED1D70011C1482
:040047004C70F122E6
:030000000200F308
:0C00F300787FE4F6D8FD75816202013AC6
:10020500BB010689828A83E0225002E722BBFE02F7
:09021500E32289828A83E493222A
:10021E00BB010CE58229F582E5833AF583E0225095
:10022E0006E92582F8E622BBFE06E92582F8E222DF
:0D023E00E58229F582E5833AF583E49322F9
:10024B00F8BB010DE58229F582E5833AF583E8F0E9
:10025B00225006E92582C8F622BBFE05E92582C895
:02026B00F2227D
:10039800E4FFFE120205600C0FEF70010E09E97010
:0503A800F20A80EF22C3
:1000FF000203F7E493A3F8E493A34003F68001F21D
:10010F0008DFF48029E493A3F85407240CC8C33301
:10011F00C4540F4420C8834004F456800146F6DFD0
:10012F00E4800B01020408102040809003FFE47E5E
:10013F00019360BCA3FF543F30E509541FFEE493C5
:10014F00A360010ECF54C025E060A840B8E493A38C
:10015F00FAE493A3F8E493A3C8C582C8CAC583CAB7
:10016F00F0A3C8C582C8CAC583CADFE9DEE780BE6F
:0104040000F7
:00000001FF
