:0F03E000E7E7E7E7E742424242422A2A2A2A2A6F
:05040100C108016200CA
:0A03EF008FE7E5E630E1FBAFE722FF
:0203BC00AE058C
:1003BE00C2E91203EFAD07AF061203EFD2E9AF05A4
:0103CE00220C
:0C003E00C2E91203EFE4FF1203EFD2E965
:01004A002293
:0602EE008B098A0A890B4E
:1002F400C2E91203EFAE07E4FDEDC3950C5017E419
:10030400FF1203EFAB09AA0AA90B8D82758300EFD4
:0A03140012024B0D80E3D2E9AF06A0
:01031E0022BC
:0602BC008B178A18891956
:1002C200C2E91203EFAE07E4FDEDC3951A5018AB75
:1002D200170519E519AA187002051814F912020572
:0B02E200FF1203EF0D80E2D2E9AF062F
:0102ED0022EE
:1003CF00E4F520C208C2E87D0F7F201203BCD2E8FB
:0103DF0022FB
:070003007542477F017E00FA
:10000A008E0D8F0EC2E87D0E7F201203BC7BFF7A15
:10001A000379E0751A057F2A1202BC7B007A0079FF
:10002A0042850E1A7FA01202BCD2E8A204720550C1
:04003A00FA0203CFF4
:03004B0002017F30
:10017F00C0E0C083C082C0D075D000C000C001C035
:10018F0002C003C005C006C0077F0712003E8F20C4
:10019F003006317B007A007922750C207F611202C4
:1001AF00EEE4FD7FE21203BCD2087F6012003E8FA7
:1001BF0062E562D39420400C756200E4FD7FE21289
:1001CF0003BCC208300407E4FD7FE11203BC300515
:1001DF0007E4FD7FE11203BC7D707F271203BCD0C3
:1001EF0007D006D005D003D002D001D000D0D0D098
:0601FF0082D083D0E03243
:06004E008B0D8A0E890FE4
:100054007C07C2E8D2EAD2B9C2E8D2EAE515146054
:100064000F146014146016240370155304F98010DF
:100074005304FB43040280085304FD80004304043A
:10008400E514600E1460101470135304F743042035
:10009400800B5304D780065304DF430408AB10AA33
:1000A40011A912751A057F301202BCAB0DAA0EA954
:1000B4000F751A057F2A1202BC7D017F221203BC30
:1000C400E4FD7F211203BCE4FD7F241203BCAD13C5
:1000D4007F251203BCAD047F261203BC7D017F3C47
:0F00E4001203BC7D077F3D1203BCD2AF0203CFD6
:06031F008B1B8A1C891DE6
:10032500120393E4FEEEC39F5018AB1BAA1CA91D34
:100335008E8275830012021EFD74422EF8A6050EEC
:0A03450080E37E0012000A0203CFDD
:10034F007593FF7594FF5393F74393104393207561
:10035F0010FF7511037512E575135C751401751592
:0A036F00037BFF7A0379EA02004ED7
:10026D0020840312000320850675424212000630D9
:10027D000826C208E52224BC600824F87008D28341
:10028D008016C2838012B2837FF47E011203A8B25E
:10029D00837FF47E011203A87542421200067FE8A7
:0F02AD007E031203A81200037FE87E030203A85A
:0803F90012034F12026D80FB9C
:0B0379007FFA7E001203847FFA7E00F2
:0F0384000000000000EF1F70011E144E70F222E7
:1003A800AD07AC06120379120379ED1D70011C1418
:0403B8004C70F12272
:030000000200F308
:0C00F300787FE4F6D8FD75816202013AC6
:10020500BB010689828A83E0225002E722BBFE02F7
:09021500E32289828A83E493222A
:10021E00BB010CE58229F582E5833AF583E0225095
:10022E0006E92582F8E622BBFE06E92582F8E222DF
:0D023E00E58229F582E5833AF583E49322F9
:10024B00F8BB010DE58229F582E5833AF583E8F0E9
:10025B00225006E92582C8F622BBFE05E92582C895
:02026B00F2227D
:10039300E4FFFE120205600C0FEF70010E09E97015
:0503A300F20A80EF22C8
:1000FF000203F9E493A3F8E493A34003F68001F21B
:10010F0008DFF48029E493A3F85407240CC8C33301
:10011F00C4540F4420C8834004F456800146F6DFD0
:10012F00E4800B0102040810204080900401E47E5B
:10013F00019360BCA3FF543F30E509541FFEE493C5
:10014F00A360010ECF54C025E060A840B8E493A38C
:10015F00FAE493A3F8E493A3C8C582C8CAC583CAB7
:10016F00F0A3C8C582C8CAC583CADFE9DEE780BE6F
:0104060000F5
:00000001FF
